{
  "_format": "hh3-artifact-1",
  "contractName": "LiskGarden",
  "sourceName": "contracts/LiskGarden.sol",
  "abi": [
    {
      "inputs": [],
      "stateMutability": "nonpayable",
      "type": "constructor"
    },
    {
      "anonymous": false,
      "inputs": [
        {
          "indexed": true,
          "internalType": "uint256",
          "name": "plantId",
          "type": "uint256"
        }
      ],
      "name": "PlantDied",
      "type": "event"
    },
    {
      "anonymous": false,
      "inputs": [
        {
          "indexed": true,
          "internalType": "uint256",
          "name": "plantId",
          "type": "uint256"
        },
        {
          "indexed": true,
          "internalType": "address",
          "name": "owner",
          "type": "address"
        },
        {
          "indexed": false,
          "internalType": "uint256",
          "name": "reward",
          "type": "uint256"
        }
      ],
      "name": "PlantHarvested",
      "type": "event"
    },
    {
      "anonymous": false,
      "inputs": [
        {
          "indexed": true,
          "internalType": "address",
          "name": "owner",
          "type": "address"
        },
        {
          "indexed": true,
          "internalType": "uint256",
          "name": "plantId",
          "type": "uint256"
        }
      ],
      "name": "PlantSeeded",
      "type": "event"
    },
    {
      "anonymous": false,
      "inputs": [
        {
          "indexed": true,
          "internalType": "uint256",
          "name": "plantId",
          "type": "uint256"
        },
        {
          "indexed": false,
          "internalType": "uint8",
          "name": "newWaterLevel",
          "type": "uint8"
        }
      ],
      "name": "PlantWatered",
      "type": "event"
    },
    {
      "anonymous": false,
      "inputs": [
        {
          "indexed": true,
          "internalType": "uint256",
          "name": "plantId",
          "type": "uint256"
        },
        {
          "indexed": false,
          "internalType": "enum LiskGarden.GrowthStage",
          "name": "newStage",
          "type": "uint8"
        }
      ],
      "name": "StageAdvanced",
      "type": "event"
    },
    {
      "inputs": [],
      "name": "PLANT_PRICE",
      "outputs": [
        {
          "internalType": "uint256",
          "name": "",
          "type": "uint256"
        }
      ],
      "stateMutability": "view",
      "type": "function"
    },
    {
      "inputs": [],
      "name": "REWARD_PANEN",
      "outputs": [
        {
          "internalType": "uint256",
          "name": "",
          "type": "uint256"
        }
      ],
      "stateMutability": "view",
      "type": "function"
    },
    {
      "inputs": [],
      "name": "STAGE_DURATION",
      "outputs": [
        {
          "internalType": "uint256",
          "name": "",
          "type": "uint256"
        }
      ],
      "stateMutability": "view",
      "type": "function"
    },
    {
      "inputs": [],
      "name": "WATER_DEPLETION_RATE",
      "outputs": [
        {
          "internalType": "uint8",
          "name": "",
          "type": "uint8"
        }
      ],
      "stateMutability": "view",
      "type": "function"
    },
    {
      "inputs": [],
      "name": "WATER_DEPLETION_TIME",
      "outputs": [
        {
          "internalType": "uint256",
          "name": "",
          "type": "uint256"
        }
      ],
      "stateMutability": "view",
      "type": "function"
    },
    {
      "inputs": [
        {
          "internalType": "uint256",
          "name": "_plantId",
          "type": "uint256"
        }
      ],
      "name": "calculateWaterLevel",
      "outputs": [
        {
          "internalType": "uint256",
          "name": "",
          "type": "uint256"
        }
      ],
      "stateMutability": "view",
      "type": "function"
    },
    {
      "inputs": [
        {
          "internalType": "uint256",
          "name": "plantId",
          "type": "uint256"
        }
      ],
      "name": "getPlant",
      "outputs": [
        {
          "components": [
            {
              "internalType": "uint256",
              "name": "id",
              "type": "uint256"
            },
            {
              "internalType": "address",
              "name": "owner",
              "type": "address"
            },
            {
              "internalType": "enum LiskGarden.GrowthStage",
              "name": "stage",
              "type": "uint8"
            },
            {
              "internalType": "uint256",
              "name": "waterLevel",
              "type": "uint256"
            },
            {
              "internalType": "uint256",
              "name": "plantedDate",
              "type": "uint256"
            },
            {
              "internalType": "uint256",
              "name": "lastWatered",
              "type": "uint256"
            },
            {
              "internalType": "bool",
              "name": "exist",
              "type": "bool"
            },
            {
              "internalType": "bool",
              "name": "isDead",
              "type": "bool"
            }
          ],
          "internalType": "struct LiskGarden.Plant",
          "name": "",
          "type": "tuple"
        }
      ],
      "stateMutability": "view",
      "type": "function"
    },
    {
      "inputs": [
        {
          "internalType": "address",
          "name": "user",
          "type": "address"
        }
      ],
      "name": "getUserPlants",
      "outputs": [
        {
          "internalType": "uint256[]",
          "name": "",
          "type": "uint256[]"
        }
      ],
      "stateMutability": "view",
      "type": "function"
    },
    {
      "inputs": [
        {
          "internalType": "uint256",
          "name": "_plantId",
          "type": "uint256"
        }
      ],
      "name": "harvestPlant",
      "outputs": [],
      "stateMutability": "nonpayable",
      "type": "function"
    },
    {
      "inputs": [],
      "name": "owner",
      "outputs": [
        {
          "internalType": "address",
          "name": "",
          "type": "address"
        }
      ],
      "stateMutability": "view",
      "type": "function"
    },
    {
      "inputs": [],
      "name": "plantCounter",
      "outputs": [
        {
          "internalType": "uint256",
          "name": "",
          "type": "uint256"
        }
      ],
      "stateMutability": "view",
      "type": "function"
    },
    {
      "inputs": [],
      "name": "plantSeed",
      "outputs": [
        {
          "internalType": "uint256",
          "name": "",
          "type": "uint256"
        }
      ],
      "stateMutability": "payable",
      "type": "function"
    },
    {
      "inputs": [
        {
          "internalType": "uint256",
          "name": "",
          "type": "uint256"
        }
      ],
      "name": "plants",
      "outputs": [
        {
          "internalType": "uint256",
          "name": "id",
          "type": "uint256"
        },
        {
          "internalType": "address",
          "name": "owner",
          "type": "address"
        },
        {
          "internalType": "enum LiskGarden.GrowthStage",
          "name": "stage",
          "type": "uint8"
        },
        {
          "internalType": "uint256",
          "name": "waterLevel",
          "type": "uint256"
        },
        {
          "internalType": "uint256",
          "name": "plantedDate",
          "type": "uint256"
        },
        {
          "internalType": "uint256",
          "name": "lastWatered",
          "type": "uint256"
        },
        {
          "internalType": "bool",
          "name": "exist",
          "type": "bool"
        },
        {
          "internalType": "bool",
          "name": "isDead",
          "type": "bool"
        }
      ],
      "stateMutability": "view",
      "type": "function"
    },
    {
      "inputs": [
        {
          "internalType": "uint256",
          "name": "_plantId",
          "type": "uint256"
        }
      ],
      "name": "updatePlantStage",
      "outputs": [],
      "stateMutability": "nonpayable",
      "type": "function"
    },
    {
      "inputs": [
        {
          "internalType": "address",
          "name": "",
          "type": "address"
        },
        {
          "internalType": "uint256",
          "name": "",
          "type": "uint256"
        }
      ],
      "name": "userPlants",
      "outputs": [
        {
          "internalType": "uint256",
          "name": "",
          "type": "uint256"
        }
      ],
      "stateMutability": "view",
      "type": "function"
    },
    {
      "inputs": [
        {
          "internalType": "uint256",
          "name": "_plantId",
          "type": "uint256"
        }
      ],
      "name": "waterPlant",
      "outputs": [],
      "stateMutability": "nonpayable",
      "type": "function"
    },
    {
      "inputs": [],
      "name": "withdraw",
      "outputs": [],
      "stateMutability": "nonpayable",
      "type": "function"
    },
    {
      "stateMutability": "payable",
      "type": "receive"
    }
  ],
  "bytecode": "0x6080604052601e6004553480156013575f5ffd5b50600380546001600160a01b0319163317905561101b806100335f395ff3fe6080604052600436106100fd575f3560e01c80638dd2361c11610092578063c8009c5111610062578063c8009c51146102df578063cfc9a5f8146102f9578063ddd4259614610313578063e38f844814610332578063ed0b1f5f14610351575f5ffd5b80638dd2361c146102075780639886bcfa146102855780639c471749146102a4578063bacb5ebd146102b9575f5ffd5b8063754e150d116100cd578063754e150d1461017d5780637ed4c5be1461019c5780638aee578b146101b15780638da5cb5b146101d0575f5ffd5b806330cec0eb146101085780633ccfd60b1461013d57806351f9efde1461015357806374119a3814610175575f5ffd5b3661010457005b5f5ffd5b348015610113575f5ffd5b50610127610122366004610da9565b61037d565b6040516101349190610dc9565b60405180910390f35b348015610148575f5ffd5b506101516103e6565b005b34801561015e575f5ffd5b50610167603c81565b604051908152602001610134565b6101676104c7565b348015610188575f5ffd5b50610167610197366004610e0b565b610693565b3480156101a7575f5ffd5b5061016760045481565b3480156101bc575f5ffd5b506101676101cb366004610e22565b610738565b3480156101db575f5ffd5b506003546101ef906001600160a01b031681565b6040516001600160a01b039091168152602001610134565b348015610212575f5ffd5b50610271610221366004610e0b565b5f6020819052908152604090208054600182015460028301546003840154600485015460059095015493946001600160a01b0384169460ff600160a01b9095048516948181169161010090041688565b604051610134989796959493929190610e7e565b348015610290575f5ffd5b5061015161029f366004610e0b565b610763565b3480156102af575f5ffd5b5061016760025481565b3480156102c4575f5ffd5b506102cd600281565b60405160ff9091168152602001610134565b3480156102ea575f5ffd5b50610167660aa87bee53800081565b348015610304575f5ffd5b5061016766038d7ea4c6800081565b34801561031e575f5ffd5b5061015161032d366004610e0b565b6108b2565b34801561033d575f5ffd5b5061015161034c366004610e0b565b6109dc565b34801561035c575f5ffd5b5061037061036b366004610e0b565b610c16565b6040516101349190610ed0565b6001600160a01b0381165f908152600160209081526040918290208054835181840281018401909452808452606093928301828280156103da57602002820191905f5260205f20905b8154815260200190600101908083116103c6575b50505050509050919050565b6003546001600160a01b031633146104335760405162461bcd60e51b815260206004820152600b60248201526a213ab5b0b71037bbb732b960a91b60448201526064015b60405180910390fd5b6003546040515f916001600160a01b03169047908381818185875af1925050503d805f811461047d576040519150601f19603f3d011682016040523d82523d5f602084013e610482565b606091505b50509050806104c45760405162461bcd60e51b815260206004820152600e60248201526d151c985b9cd9995c8819d859d85b60921b604482015260640161042a565b50565b5f66038d7ea4c680003410156105175760405162461bcd60e51b8152602060048201526015602482015274496e7375666669636963656e742062616c616e636560581b604482015260640161042a565b60028054905f61052683610f50565b909155505060408051610100810182526002548082523360208084019182525f84860181815260646060870152426080870181905260a0870152600160c0870181905260e08701839052948252918190529490942083518155905191810180546001600160a01b031981166001600160a01b0390941693841782559451939491939290916001600160a81b03191617600160a01b8360038111156105cc576105cc610e4a565b021790555060608201516002808301919091556080830151600383015560a0830151600483015560c08301516005909201805460e09094015115156101000261ff00199315159390931661ffff199094169390931791909117909155335f90815260016020818152604080842085548154808601835591865283862090910155935483528290528282208054910154925190926001600160a01b0316917f4f5b22082ac57121703b0b6c1203ef527cfbfa5069616fee6deb979d124adbf091a35060025490565b5f818152602081905260408120600581015460ff1615806106bd57506005810154610100900460ff165b156106ca57505f92915050565b5f8160040154426106db9190610f68565b90505f600454826106ec9190610f81565b90505f6106fa600283610fa0565b90508360020154811061071257505f95945050505050565b5f8681526020819052604090206002015461072e908290610f68565b9695505050505050565b6001602052815f5260405f208181548110610751575f80fd5b905f5260205f20015f91509150505481565b5f8181526020819052604090206005015460ff166107935760405162461bcd60e51b815260040161042a90610fb7565b5f818152602081905260409020600101546001600160a01b031633146107fb5760405162461bcd60e51b815260206004820152601a60248201527f4e6f7420746865206f776e6572206f662074686520706c616e74000000000000604482015260640161042a565b5f81815260208190526040902060050154610100900460ff16156108595760405162461bcd60e51b8152602060048201526015602482015274141b185b9d081a5cc8185b1c9958591e4819195859605a1b604482015260640161042a565b5f818152602081815260409182902060646002820181905542600490920191909155915191825282917fd4b742b9ba48fffa1f14267075a7793851770764117c423fd0a6550dfc8cb574910160405180910390a26104c4815b5f8181526020819052604090206005015460ff166108e25760405162461bcd60e51b815260040161042a90610fb7565b6108eb81610d10565b5f81815260208190526040902060050154610100900460ff161561090c5750565b5f818152602081905260408120600301546109279042610f68565b9050603c811061095c575f8281526020819052604090206001908101805460ff60a01b1916600160a01b835b02179055505050565b6078811061098c575f82815260208190526040902060010180546002919060ff60a01b1916600160a01b83610953565b60b481106109bc575f82815260208190526040902060010180546003919060ff60a01b1916600160a01b83610953565b5f828152602081905260409020600101805460ff60a01b191690555b5050565b5f8181526020819052604090206005015460ff16610a0c5760405162461bcd60e51b815260040161042a90610fb7565b5f818152602081905260409020600101546001600160a01b03163314610a625760405162461bcd60e51b815260206004820152600b60248201526a213ab5b0b71037bbb732b960a91b604482015260640161042a565b5f81815260208190526040902060050154610100900460ff1615610ab85760405162461bcd60e51b815260206004820152600d60248201526c141b185b9d081a5cc819195859609a1b604482015260640161042a565b610ac1816108b2565b60035f82815260208190526040902060010154600160a01b900460ff166003811115610aef57610aef610e4a565b14610b345760405162461bcd60e51b8152602060048201526015602482015274506c616e74206973206e6f7420626c6f6f6d696e6760581b604482015260640161042a565b5f8181526020818152604091829020600501805460ff191690559051660aa87bee5380008152339183917f79f2138ea100070ff95b59c265da7aa3c7a0f61595fe1bb2f5fda2762f398847910160405180910390a36040515f903390660aa87bee538000908381818185875af1925050503d805f8114610bcf576040519150601f19603f3d011682016040523d82523d5f602084013e610bd4565b606091505b50509050806109d85760405162461bcd60e51b815260206004820152600e60248201526d151c985b9cd9995c8819d859d85b60921b604482015260640161042a565b60408051610100810182525f80825260208201819052918101829052606081018290526080810182905260a0810182905260c0810182905260e08101919091525f828152602081815260408083208151610100810183528154815260018201546001600160a01b03811694820194909452929091830190600160a01b900460ff166003811115610ca857610ca8610e4a565b6003811115610cb957610cb9610e4a565b815260028201546020820152600382015460408201526004820154606082015260059091015460ff8082161515608084015261010090910416151560a0909101529050610d0583610693565b606082015292915050565b5f81815260208190526040812090610d2783610693565b60028301819055905080158015610d4857506005820154610100900460ff16155b15610d895760058201805461ff00191661010017905560405183907fcc296a21951f3e57f21afb08547d835a0a9f0f06cc2867009cbe0cae44d36be9905f90a25b505050565b80356001600160a01b0381168114610da4575f5ffd5b919050565b5f60208284031215610db9575f5ffd5b610dc282610d8e565b9392505050565b602080825282518282018190525f918401906040840190835b81811015610e00578351835260209384019390920191600101610de2565b509095945050505050565b5f60208284031215610e1b575f5ffd5b5035919050565b5f5f60408385031215610e33575f5ffd5b610e3c83610d8e565b946020939093013593505050565b634e487b7160e01b5f52602160045260245ffd5b60048110610e7a57634e487b7160e01b5f52602160045260245ffd5b9052565b8881526001600160a01b03881660208201526101008101610ea26040830189610e5e565b6060820196909652608081019490945260a0840192909252151560c0830152151560e0909101529392505050565b815181526020808301516001600160a01b031690820152604080830151610100830191610eff90840182610e5e565b50606083015160608301526080830151608083015260a083015160a083015260c0830151151560c083015260e0830151151560e083015292915050565b634e487b7160e01b5f52601160045260245ffd5b5f60018201610f6157610f61610f3c565b5060010190565b81810381811115610f7b57610f7b610f3c565b92915050565b5f82610f9b57634e487b7160e01b5f52601260045260245ffd5b500490565b8082028115828204841417610f7b57610f7b610f3c565b602080825260149082015273141b185b9d08191bd95cc81b9bdd08195e1a5cdd60621b60408201526060019056fea26469706673582212201fd617b0a5898e101b4e3bc3dbfeb45d658b3fdbcad0fb42e41cf8b1cb01618a64736f6c634300081e0033",
  "linkReferences": {},
  "deployedLinkReferences": {},
  "immutableReferences": {},
  "inputSourceName": "project/contracts/LiskGarden.sol",
  "buildInfoId": "solc-0_8_30-9a1ac4a1227d4dd69831d46db339e4e043486313"
}